:10005F00C290D292D290C292C29022C290C292D239
:10006F0090D292C29022D290000000C29022D292DF
:10007F0000D29000E4A29233FAF58200C29022AA35
:10008F00827B00BB08005014EA23FA139292C0023D
:10009F00C003120075D003D0020B80E7227A00D282
:1000AF00927B08EA2AFAC002C00312007DAC82D00C
:1000BF0003D002EC4202DBEBD292C002120075D0E9
:1000CF00028A8222C010858110AA82C00212005FAC
:1000DF00D0028A8212008E12007DA810181818867E
:1000EF008212008E12007DE51024FCF88682120029
:1000FF008E12007D12006AD01022C010858110AAC6
:10010F0082C00212005FD0028A82C00212008ED01B
:10011F0002C00212007DD002A8101818188682C0E3
:10012F000212008ED002C00212007DD002C0021255
:10013F00006AD002C00212005FD00274014AF58239
:10014F0012008E12007D1200AC85820812007D1203
:10015F00006A850882D01022AA82C00212005FD0E6
:10016F0002758240C00212008ED002C00212007DC2
:10017F00E582D00270178A8212008E12007DE5820E
:10018F00700712006A758201227582FF227582FF45
:10019F002212005F75824112008E12007DE582707F
:1001AF000F1200ACAA82C00212006AD0028A822209
:1001BF007582FF22AA8290F100E0FB530380BB00FF
:1001CF00F590F000EAF090F100E0FA530280BA00E7
:1001DF00F5227582301201C390001012141D758222
:1001EF00301201C390000612141D7582301201C324
:1001FF007582381201C37582081201C375820C1201
:10020F0001C37582061201C37582010201C3AA825E
:10021F0074804AF5820201C3C010858110AA82BA88
:10022F000002800ABA01028014BA022F801EA810A1
:10023F00181818748026F5821201C3802BA8101885
:10024F00181874C026F5821201C3801CA810181844
:10025F0018749026F5821201C3800DA81018181873
:10026F0074D026F5821201C3D01022AA82BA0A02D4
:10027F008014BA0D3E120397E58254F0FB74804B45
:10028F00FAF58202021D120397AA8274F05AFB70CC
:10029F00047B018013BB40047B02800CBB10047BEA
:1002AF00038005BB50027B00E4C0E08B8212022763
:1002BF0015812290F200EAF090000212141D120331
:1002CF0097AA82BA400CE4C0E07582031202271588
:1002DF008122BA100CE4C0E0758201120227158149
:1002EF0022BA500CE4C0E075820212022715812257
:1002FF00BA200CE4C0E0758203120227158122BADE
:10030F00600BE4C0E0758200120227158122AA82D9
:10031F00AB83ACF08A828B838CF0126242FD601843
:10032F000ABA00010B8D82C002C003C00412027A08
:10033F00D004D003D00280DC22AA82AB83ACF0754C
:10034F008201C002C003C0041201C3D004D003D085
:10035F0002900002C002C003C00412141DD004D0CA
:10036F0003D0028A828B838CF0126242FD60180ADE
:10037F00BA00010B8D82C002C003C00412027AD0F2
:10038F0004D003D00280DC2290F100E0FA53028007
:10039F00BA00F590F100E0FA747F5AF58222858257
:1003AF00C5E5C430E7FB85C58222AA828A031AEB12
:1003BF00600575C5FF80F5E5C430E7FB22AA82C052
:1003CF0002758286120109158122C010858110AA3B
:1003DF0082C002A810181818E6C0E0C00275828605
:1003EF001200D315811581D002BA100690005A124F
:1003FF00141DD010227A007B00EA24CEF582EB3454
:10040F0062F583E493FCBCFF01228A048B050ABAD0
:10041F0000010BEC24CEF582ED3462F583E493FCFE
:10042F008A058B060ABA00010BED24CEF582EE3455
:10043F0062F583E493FDC002C003C0048D821203F2
:10044F00D91581D003D00280B090001E12141D75F3
:10045F0082011203CCAA82BAAC02800475820022F8
:10046F007404C0E07582181203D9158112040412A6
:10047F000485758201227401C0E07582101203D9C0
:10048F001581E4C0E07582101203D915817401C083
:10049F00E07582141203D915817401C0E07582547E
:1004AF001203D915817421C0E07582551203D91535
:1004BF00817404C0E07582521203D91581E4C0E043
:1004CF007582511203D915817455C0E0758265127A
:1004DF0003D915817455C0E07582641203D9158153
:1004EF007410C0E07582501203D91581740FC0E0EB
:1004FF007582611203D915817403C0E075820B12E6
:10050F0003D9158174A1C0E07582051203D9158135
:10051F00740CC0E07582061203D91581E4C0E07532
:10052F0082071203D91581E4C0E075820D1203D939
:10053F0015817404C0E07582181203D915817405F2
:10054F00C0E075820C1203D91581E4C0E0C0E0E46D
:10055F00C0E0E4C0E0C0E075820012078AE58124A4
:10056F00FBF5817401C0E07582721203D915817495
:10057F0001C0E07582131203D91581E4C0E07582C2
:10058F00141203D91581E4C0E075825F1206941529
:10059F0081227401C0E07582141203D91581740190
:1005AF00C0E07582101203D91581E4C0E075821086
:1005BF001203D91581227401C0E07582141203D978
:1005CF001581E4C0E07582131203D91581227401DD
:1005DF00C0E07582131203D91581E4C0E07582144F
:1005EF001203D91581227582431203CCAA82758218
:1005FF0044C0021203CCAB82D002758245C002C048
:10060F00031203CCAC82D003D002530218EAC423E6
:10061F00541FFA740C5BFD0303543FFDEA2A25E0D7
:10062F00FE42055303F0EBC4540FFB530201EAC41F
:10063F0054F0FA42035304C0EC23235403FCEB9011
:10064F00728A93FA75F002A4FAABF0ED9072AA9346
:10065F00FD7E007F00C002C003C005C006C004C0FD
:10066F000774BAC0E07472C0E0125EBDE58124F871
:10067F00F5812275826A1203CCE58275F002A4F52A
:10068F008285F08322C010858110AA82A8101818C5
:10069F0018C3748086F063F08095F050127464C3B1
:1006AF009AFB8B04A810181818EBC396FB801174D3
:1006BF0064C39AFAA810181818E62AFD8D048A0345
:1006CF00ECFA3395E0FDC0037460C0E0E4C0E08A4B
:1006DF00828D83125E02AA82AD8315811581D003AC
:1006EF008A04ECFA3395E0FDC003E4C0E0C0E08A71
:1006FF00828D83125DD9AA82AD8315811581D003B6
:10070F008A04EBFA3395E0FDC0047460C0E0E4C0E6
:10071F00E08A828D83125E02AA82AD8315811581D4
:10072F00D0048A03EBFA3395E0FDC004E4C0E0C0C7
:10073F00E08A828D83125DD9AA82AD8315811581DE
:10074F00D0048A03C003C0047582461203D91581F1
:10075F00D003C0037460C0E07582471203D91581BE
:10076F00D003C0037582481203D915817460C0E0AD
:10077F007582491203D91581D01022C010858110BE
:10078F00AA82E51024FCF886037C00C002C0037522
:10079F0082791203D91581D002E51024FC04F88662
:1007AF0003C002C00375827A1203D91581D002EA01
:1007BF00FB3395E0FC740CC0E0E4C0E08B828C83CB
:1007CF00125E02AB82AC83158115818B02EAFB337B
:1007DF0095E0FC74F4C0E074FFC0E08B828C831250
:1007EF005DD9AB82AC83158115818B02C002C0022B
:1007FF0075827C1203D91581D002E51024F9F88691
:10080F00037C00C002C0037582771203D91581D013
:10081F0002E51024F904F88603C002C0037582783C
:10082F001203D91581D002E51024FBF88603E633B5
:10083F0095E0FCC002740CC0E0E4C0E08B828C83B6
:10084F00125E02AB82AC8315811581D002EB33951A
:10085F00E0FCC00274F4C0E074FFC0E08B828C83B4
:10086F00125DD9AB82AC8315811581D0028B04C088
:10087F0002C003C00475827B1203D91581D003D047
:10088F0002EB3395E0FCEA3395E0FDC002C0058B27
:10089F00828C83125DD9AA82AB8315811581C00228
:0B08AF0075827D1203D91581D0102244
:1062CE003A012A0428002900200021002200230080
:1062DE00240025002600270028012802218F2803EC
:1062EE002100280428052806280728082809280A36
:1062FE00280B280C20802190280D20002100280E2C
:10630E0020812191280F2000219228102100281190
:10631E0021932812210028132814281520822816CC
:10632E0020002817281828192194281A2195281B8F
:10633E002196281C2100281D2083281E2000281F9E
:10634E0021972820210028212822282328242825A7
:10635E002826282728282829282A2084282B200088
:10636E00282C282D282E282F283028312832208519
:10637E002833200028342835283628372198283805
:10638E0021002839283A283B283C283D283E283F22
:10639E002840284128422843284428452846284793
:1063AE0028482849284A284B284C284D284E284F43
:1063BE0028502851285228532854285528562857F3
:1063CE0028582859285A285B285C285D285E285FA3
:1063DE002860286128622199286321002864286595
:1063EE002866286728682869286A286B286C286D13
:1063FE00286E286F287028712872287328742875C3
:10640E002876287728782879287A287B287C287D72
:10641E00287E287F28802881288228832884288522
:10642E002886288728882889288A288B288C288DD2
:10643E00288E288F289028912086289220872893AE
:10644E002000289428952896289728982899289AE5
:10645E00289B289C289D289E289F219A28A02100B1
:10646E0028A128A228A328A428A528A628A728A8BA
:10647E0028A928AA28AB28AC28AD28AE28AF28B06A
:10648E0028B128B228B328B428B528B628B728B81A
:10649E0028B9208828BA200028BB208928BC2000D3
:1064AE0028BD28BE28BF28C028C128C228C3219BCA
:1064BE0028C4210028C528C628C728C828C928CA24
:1064CE0028CB28CC28CD28CE28CF28D028D128D20A
:1064DE0028D328D428D528D628D728D828D928DABA
:1064EE0028DB28DC28DD28DE28DF28E028E1208ACA
:1064FE0028E2208B28E3200028E428E528E628E778
:10650E0028E828E928EA28EB28EC28ED28EE28EFE1
:10651E0028F028F128F228F328F428F528F628F791
:10652E0028F8208C28F92000219C28FA219D28FB90
:10653E00208D219E28FC208E219F28FD20002100E9
:10654E0028FE28FF2A0128002201239524892507E9
:10655E0026A42707280121C72200238026C4270C42
:10656E0028022009211C220426AA270A280320001B
:10657E002100220023A626A027072804280520058F
:10658E00238426B427092806200022032300248111
:10659E0025C026AB270A280721AE22002395248981
:1065AE00250726A42700280821482201238026C477
:1065BE00270C280920092104220426AA270A280AC2
:1065CE0020002100220023A826A42707280B280C30
:1065DE0021402220238026C4270C280D222426C6E3
:1065EE00280E219E220026C8280F200921022214DF
:1065FE0026AA270A2810200521002200238426B46B
:10660E0027092811200021012300240125C026ABD3
:10661E00270A281221C3239524892507262027001F
:10662E002813200321C223832626270D281421B3E5
:10663E0022082815200021C62200239526002708AF
:10664E002816210023002496250326AA270A281798
:10665E00204221B6238024892507281820002100F6
:10666E002394260E2819200F238426B42709281ACE
:10667E002000239326A82703281B26282700281C42
:10668E0021012300240125C026AB270A281D21C580
:10669E0023952489250726202700281E21002394D0
:1066AE002600270A281F260E2820200321792201E2
:1066BE0023832626270D282121322822200021047B
:1066CE0022002380240025FC26AA270A2823210045
:1066DE0023002500282421A3220D2380249E253B60
:1066EE00282520422157220124892507282620000B
:1066FE002143220D2400253828272108229823958E
:10670E0024892507262427002828204221932201A8
:10671E00238026AA270A28292003217E22042383E8
:10672E002626270D282A200021B02200239526A0F8
:10673E002707282B21002300240C250426AA270A2C
:10674E00282C21022380248625C326AB282D204207
:10675E00219722012489250726AA282E2000210010
:10676E002200241F2504282F21B2239524892507D2
:10677E002620270428302042218B2204238026AA9B
:10678E00270A2831200021B12200239526A02707B1
:10679E00283220032175220423832626270D283331
:1067AE00200521002200238426B427092834200046
:1067BE0021602300240125C026AB270A2835210895
:1067CE00229823952489250726242700283621BCC4
:1067DE002200283721A3220D2300240125C026AB39
:1067EE00270A28382160220023802400253826AA73
:1067FE002839210622982395248925072624270047
:10680E00283A21BE2200283B20052100238426B4ED
:10681E002709283C200021602300240125C026AB37
:10682E00270A283D21422201239524892507262463
:10683E002700283E210C229826A42707283F21084E
:10684E002840216022002300240125C026AB270A00
:10685E002841210C229823952489250726242700D8
:10686E002842200521002200238426B4270928432C
:10687E00200023802400251026AB270A284421223D
:10688E002201239524892507262427002845210047
:10689E00220023002404251226AA270A28462003B4
:1068AE0021D422052383248925072626270D284750
:1068BE002000216022002300240125C026AB270AD8
:1068CE00284821B32395248925072600270828491F
:1068DE00210023002409250026AA270A284A21027E
:1068EE0023802486253B284B204221DD2205248946
:1068FE002507284C200021002200241F2500284DAA
:10690E0021B323952489250726202700284E210010
:10691E0023002497250326AA270A284F204221E286
:10692E0022052380248925072850200021102200CB
:10693E002300248025CC26AB28512100224023B4ED
:10694E002489250726AA27042852220023B026923E
:10695E00270928532114220123952600270828549D
:10696E00214823A4262A270028552100220023008F
:10697E002409250026AA270A2856210823802486C2
:10698E00253B285720422111220724892507285804
:10699E00200021002200241F250028592114220145
:1069AE0023952489250726202700285A21162602FA
:1069BE002709285B2100220023002480254826AACF
:1069CE00270A285C23A02489250726142709285D79
:1069DE002480255026A42704285E21162201239503
:1069EE00248925072700285F210422002300249CE8
:1069FE00257826AA270A28602143220D240125C4C2
:106A0E0026AB2861210322002415286221002400D0
:106A1E00250026AA2863215E2395248925072610A2
:106A2E002709286421032300241525C426AB270A31
:106A3E002865210023802400250626AA2866248F97
:106A4E0025E326AB2867204221CD2207248925077E
:106A5E0026AA28682000216022002300240125C0D8
:106A6E0026AB286921002380248F250326AA286AB5
:106A7E00204221DD220724892507286B200021438F
:106A8E00220D2300240125C026AB286C21002200F4
:106A9E002400250426AA286D2003217F22012383AA
:106AAE00248925072626270D286E2162286F2005AA
:106ABE0021002200238426B42709287020002106F5
:106ACE002395260027082871210123002497253BB2
:106ADE0026AA270A28722042210E22082380248902
:106AEE00250728732003213C220B23832626270DFE
:106AFE0028742000210322002395260227082875DA
:106B0E0021272300248125C426AB270A28762100BD
:106B1E0023802409254826AA28772158223423A326
:106B2E0024892507262A270028782100220023A061
:106B3E00260027092879210723802403253926AA30
:106B4E00270A287A21042300241C2538287B2107B4
:106B5E00238024832539287C210323952489250726
:106B6E0026022708287D21272300248125C426AB51
:106B7E00270A287E210023802409254826AA287F5B
:106B8E002158223423A324892507262A270028806A
:106B9E00210622002300248125C026932701288167
:106BAE00210023802489254826AA270A288220022C
:106BBE002166220823002400256628832000210058
:106BCE0022002380241F25022884210624892507DC
:106BDE0026DC270C2885210023AA26AA270A288628
:106BEE0023B626002708288723802486253B26AA3D
:106BFE00270A288821052489250726DC270C2889C1
:106C0E00210023AA26AA270A288A23B626002708A7
:106C1E00288B23802486253B26AA270A288C2042EF
:106C2E00217B220824892507288D2000210022009F
:106C3E00230024012582288E2105248125C226AB1E
:106C4E00288F2003219322082383248925072626B3
:106C5E00270D28902000210522002300248125C025
:106C6E00261327012891210023802489254826AA4E
:106C7E00270A28922002217E22082300240025665E
:106C8E0028932000210022002380241F250228940F
:106C9E0021052489250726DC270C2895210023AA07
:106CAE0026AA270A289623B6260027082897238087
:106CBE002486253B26AA270A2898210524892507FC
:106CCE0026DC270C2899210023AA26AA270A289A0F
:106CDE002380241F2502289B21012300248125C205
:106CEE0026AB289C20032193220823832489250781
:106CFE002626270D289D20002104220023952612EA
:106D0E002708289E216023C426AA2704289F210035
:106D1E0023C02600270928A0204221CB2208238049
:106D2E0026AA270A28A12070215422B823952612BC
:106D3E00270828A2200221CC2208238026AA270A6F
:106D4E0028A3200321CA220F23832626270D28A439
:106D5E002000210022002300248C250C26AA270ABD
:106D6E0028A521042482257828A6210023802489A1
:106D7E0025482612270428A7200321DE220F23836D
:106D8E0025072626270D28A82000210122002300F2
:106D9E00249C257826AA270A28A92100238024814D
:106DAE00254028AA200321CF220F238324892507DB
:106DBE002626270D28AB2070210822B8239526A061
:106DCE00270428AC200321D4220F23832626270D47
:106DDE0028AD2127220B28AE2070216322B82395DF
:106DEE002612270828AF20002101220023802486A6
:106DFE0025CB26AB270A28B0204221DD2208248984
:106E0E00250726AA28B1200021182280239526A422
:106E1E00270028B2200321D9220F23832626270DEF
:106E2E0028B32070210A22B8239526A0270028B463
:106E3E00200221E02208238026AA270A28B52070E6
:106E4E00210A22B8239526A0270028B6215426020F
:106E5E00270828B720002118228026A4270028B84A
:106E6E002100220023802480254826AA270A28B93B
:106E7E002070215E22B82395248925072612270823
:106E8E0028BA20002100220023802409254B26AA9F
:106E9E00270A28BB2070215F22B823952489250755
:106EAE002610270828BC2000210022002300241CC5
:106EBE00258326AB270A28BD2003213222092383EE
:106ECE00248925072626270D28BE20002100220012
:106EDE0023002482258C26AB270A28BF20032125D8
:106EEE0022092383248925072626270D28C0204220
:106EFE0021BC238026AA270A28C1200021012200B6
:106F0E002300240125C026AB28C22070210F22B8F1
:106F1E002395248925072620270028C3200321E353
:106F2E00220F23832626270D28C4200521002200A8
:106F3E00238426B4270928C520002103239526146F
:106F4E00270828C621A623A4262A270528C72100FC
:106F5E0023A02644270928C82118226D2380249EA9
:106F6E00257B26AA270A28C920422113220B248911
:106F7E00250728CA200021AE2200239526242700AB
:106F8E0028CB2100220323802487257B26AA270ACB
:106F9E0028CC20422116220B2489250728CD20003B
:106FAE0021AE220023952624270028CE200521007D
:106FBE00238426B4270928CF2003210D220B2383F7
:106FCE002626270D28D02000210022002300248011
:106FDE002602270028D1238024092548261E28D2E0
:106FEE0021582234233324802507262A28D3210032
:106FFE00220023002680271028D421102363262A5E
:10700E00270028D52100236026A8271228D621AFD5
:10701E00224C230026C8270C28D7210022002680C8
:10702E00270528D823802486253B261E270028D90D
:10703E002042211C220E23002480250728DA20005E
:10704E002135222926C4270C28DB2002211D220EE1
:10705E00261E270028DC2000217F223426C4270C80
:10706E0028DD210022002390249F25042610270AC4
:10707E0028DE2300248425002680271028DF210601
:10708E00236324802507262A270028E02100238059
:10709E00248926AA270A28E12005238426B4270955
:1070AE0028E22070216122B823952612270828E3B2
:1070BE002000210122002380248625C326AB270A27
:1070CE0028E4204221CE220F2489250726AA28E56E
:1070DE002070215022B823952612270828E6200575
:1070EE0021002200238426B4270928E7207021647A
:1070FE0022B823952612270828E820002101220015
:10710E002380248625C326AB270A28E9204221D3D3
:10711E00220F2489250726AA28EA2070215122B899
:10712E0023952612270828EB200521002200238410
:10713E0026B4270928EC2070216522B82395261243
:10714E00270828ED2000210122002380248625C354
:10715E0026AB270A28EE204221D8220F24892507A4
:10716E0026AA28EF2070215222B82395261227082E
:10717E0028F0200521002200238426B4270928F1B7
:10718E002070216122B823952602270828F22000BC
:10719E00210122002380248625C326AB270A28F34B
:1071AE00204221DD220F2489250726AA28F42070EB
:1071BE00215022B823952602270828F52005210004
:1071CE002200238426B4270928F6200021012380DB
:1071DE00248625CB26AB270A28F7204221E1220F51
:1071EE002489250726AA28F8200021022200230040
:1071FE00248125C426AB28F9210023802489254823
:10720E0026AA28FA20052384250726B4270928FB59
:10721E002070214E22B823952610270828FC200026
:10722E00210022002380248625C326AB270A28FDB1
:10723E00204221E7220F2489250726AA28FE2000B6
:10724E0021BB220023952620270028FF20052100A0
:10725E00238426B427092A0810013A005401552127
:10726E000700060C0B03501051005204610F6455B9
:10727E00655505A10D0418040C01FFFF0004080C50
:10728E001014181C202830384048500000101418D4
:10729E001C202830384050607080A0000B0C080075
:1072AE0000000000161810002C3020000D0A4D6F43
:1072BE006465203D2025642053616D706C696E6796
:1072CE002046726571203D202564204269747261EA
:0872DE007465203D20256400C9
:1008BA0085829910990280FB2210980280FB859903
:1008CA008222C0108581100581AA82AB83ACF08A8E
:1008DA00058B068C078D828E838FF0A81008126212
:1008EA0042F6A81008B62002800EA81008B60D021B
:1008FA008006A81008B609070DBD00D90E80D68D4E
:10090A00028E038F04D200A81008B62B028006A814
:10091A001008B62D188A828B838CF0126242FDA3CE
:10092A00AA82AB83E4BD2B010424FF92007D007EE2
:10093A00008A828B838CF0126242FFBF0D03020988
:10094A00C6C3EF648094B0405274B98FF063F080EC
:10095A0095F04047C002C003C004C004C007C020CD
:10096A00740AC0E0E4C0E08D828E83125FC5AA8259
:10097A00AB8315811581D020D007D004EF3395E0E1
:10098A00FCEF24D0FFEC34FFFCEF2AFAEC3BFB8AA5
:10099A00058B06D004D003D0028019C02074E6C0AB
:1009AA00E07472C0E0125EBD15811581D0207DFF12
:1009BA007EFF80080ABA00010B02093B3000068D4F
:1009CA00028E038007C3E49DFAE49EFB8A828B832E
:1009DA00851081D01022C01085811005810581AA59
:1009EA0082AB83ACF08A828B838CF0126242FDBDAB
:1009FA0020028008BD0D028003BD09070ABA00E57E
:100A0A000B80E27D007E008A828B838CF012624228
:100A1A00FFBF0D03020B29C3EF648094B0404174F9
:100A2A00B98FF063F08095F04036C002C003C0046D
:100A3A008D02EEC454F0CAC4CA6ACA54F0CA6AFB28
:100A4A00EF3395E0FCEF24D0FFEC34FFFCEF2AFAF9
:100A5A00EC3BFB8A058B06D004D003D002020B21A3
:100A6A008A828B838CF0126242FFC3648094E140D5
:100A7A004974E68FF063F08095F0403EC002C003EF
:100A8A00C004A81008A605EEC454F0C6C4C666C6BB
:100A9A0054F0C66608F6EFFC3395E0FA74A92CFC0C
:100AAA0074FF3AFAA81008EC26FCEA0836FA8C0514
:100ABA008A06D004D003D002805DC3EF648094C15B
:100ACA00404074C68FF063F08095F04035C002C094
:100ADA0003C0048D02EEC454F0CAC4CA6ACA54F0F0
:100AEA00CA6AFBEF3395E0FC74C92FFF74FF3CFC24
:100AFA00EF2AFAEC3BFB8A058B06D004D003D0021E
:100B0A00801574E6C0E07472C0E0125EBD158115EE
:100B1A00817DFF7EFF80080ABA00010B020A118D4F
:100B2A00828E83851081D01022C010E581F51024B1
:100B3A0007F581AA82AB83E4FCFDAE100E0ABA0067
:100B4A00010BEC2EF8C002C003C004C005C006C0E9
:100B5A00001208C3AF82D000D006D005D004D0035B
:100B6A00D002A607BF0D03020C508607BF0875C343
:100B7A00E49C74808DF063F08095F050C5C002C08B
:100B8A00038C078D021CBCFF011DEF2EF9770D7532
:100B9A008208C002C003C004C005C0061208BAD049
:100BAA0006D005D004D003D002758220C002C0034B
:100BBA00C004C005C0061208BAD006D005D004D0B9
:100BCA0003D002758208C002C003C004C005C00673
:100BDA001208BAD006D005D004D003D002D003D070
:100BEA0002020B4C8607C3EF648094B05003020BD9
:100BFA004C8607C374B98FF063F08095F0500302F6
:100C0A000B4C8682C002C003C004C005C00612088D
:100C1A00BAD006D005D004D003D0020CBC00010D16
:100C2A00C3EC9AED64808BF063F08095F050030278
:100C3A000B4C74E6C0E07472C0E0125EBD158115FB
:100C4A008190FFFF800D7A007B408E828A838BF031
:100C5A001208CC851081D01022C010858110AA827A
:100C6A00AB83E51024FAF88682088683C002C003A3
:100C7A00120B33AC82AD83D003D002C3EC9AED647D
:100C8A00808BF063F08095F04015E51024FCF8C3E2
:100C9A00E69C08E664808DF063F08095F05044C0CD
:100CAA0002C00374E6C0E07472C0E0125EBD158132
:100CBA001581D003D002E51024FAF8E6C0E008E670
:100CCA00C0E0E51024FCF8E6C0E008E6C0E08A824D
:100CDA008B83120C63AA82AB83E58124FCF5818A9B
:100CEA00048B05C004C0057404C0E07473C0E0122C
:100CFA005EBD15811581D005D0048C828D83D010FC
:010D0A0022C6
:1072E6000D0A2020496E76616C696420456E7472C1
:1072F600792E1B38202020202020201B38000D0A44
:107306002020202020202020202020202020202077
:037316001B380021
:100D0B00AA82BA0002800475820122121441E58284
:100D1B007008900006E0FA54FEF0900006E0F582B1
:100D2B0022AA82BA0002800475820122900006E09A
:100D3B00F58222C010858110E582FA7012E510242D
:100D4B00F6F8E6600AE51024F6F8E624FE50057581
:100D5B0082048042900006E0FA30E0057582038041
:100D6B0035E51024FBF8E6C0E008E6C0E008E6C075
:100D7B00E0E51024F7F886820886830886F008E6FB
:100D8B001215D7AA82158115811581EA6005758226
:100D9B00018003758200D01022C010858110E5827E
:100DAB00FA7012E51024F6F8E6600AE51024F6F85E
:100DBB00E624FE5005758204804B900006E0FA3065
:100DCB00E005758203803EE51024FBF88602088659
:100DDB00030886048A828B838CF0126242FD8A821E
:100DEB008B838CF0125EA4E51024F7F886820886BC
:100DFB00830886F008E6120FDBE582600575820139
:100E0B008003758200D01022C010858110E582FA14
:100E1B007012E51024F6F8E6600AE51024F6F8E601
:100E2B0024FE5005758204804B900006E0FA30E0FA
:100E3B0005758203803EE51024FBF88602088603C5
:100E4B000886048A828B838CF0126242FD8A828B25
:100E5B00838CF0125EA4E51024F7F8868208868353
:100E6B000886F008E6120F35E58260057582018071
:100E7B0003758200D01022C010858110E582FA70B4
:100E8B0012E51024F6F8E6600AE51024F6F8E624DD
:100E9B00FE50057582048042900006E0FA30E005B2
:100EAB007582038035E51024FBF8E6C0E008E6C048
:100EBB00E008E6C0E0E51024F7F886820886830890
:100ECB0086F008E6121699AA82158115811581EA1A
:100EDB0060057582018003758200D01022C01085D9
:100EEB008110AA82BA0002800575820480399000B5
:100EFB0006E0FA30E005758203802C7A01A8101801
:100F0B001818B60012C291C00212173CAB82D00265
:100F1B00BBFF067A0080027A04D2917582FFC00271
:100F2B001203ADD0028A82D01022AA82AB83ACF01E
:100F3B00FDEA2ACB33CC33CD7A00C002C003C00408
:100F4B00C005758211121348E58124FCF58112133B
:100F5B00CDAA82C0021213CDAB82D0027CFF7DFFE3
:100F6B00BBFF1E1CBCFF011DEC4D6015C002C00475
:100F7B00C0051213CDAE82D005D004D0028E0380F3
:100F8B00DFEA7005BBFE028004758201227B007CC8
:100F9B00027582FFC003C0041203ADAD82D004D032
:100FAB00038D02BA0002800D8A82C003C0041208AE
:100FBB00BAD004D0031BBBFF011CEB4C70D3758262
:100FCB00FF1203AD7582FF1203ADD2917582002221
:100FDB00AA82AB83ACF0FDEA2ACB33CC33CD7A00BB
:100FEB00C002C003C004C005758211121348E5810D
:100FFB0024FCF5811213CDAA82C0021213CDAB8251
:10100B00D0027CFF7DFFBBFF1E1CBCFF011DEC4D06
:10101B006015C002C004C0051213CDAE82D005D03E
:10102B0004D0028E0380DFEA7005BBFE02800475DC
:10103B00820122D2937A017B00C3E49A74029B5003
:10104B00030213347C0030940302125C75C5FFE578
:10105B00C430E7FB75C5FFE5C430E7FB75C5FFE59D
:10106B00C430E7FB75C5FFE5C430E7FB75C5FFE58D
:10107B00C430E7FB75C5FFE5C430E7FB75C5FFE57D
:10108B00C430E7FB75C5FFE5C430E7FB75C5FFE56D
:10109B00C430E7FB75C5FFE5C430E7FB75C5FFE55D
:1010AB00C430E7FB75C5FFE5C430E7FB75C5FFE54D
:1010BB00C430E7FB75C5FFE5C430E7FB75C5FFE53D
:1010CB00C430E7FB75C5FFE5C430E7FB75C5FFE52D
:1010DB00C430E7FB75C5FFE5C430E7FB75C5FFE51D
:1010EB00C430E7FB75C5FFE5C430E7FB75C5FFE50D
:1010FB00C430E7FB75C5FFE5C430E7FB75C5FFE5FD
:10110B00C430E7FB75C5FFE5C430E7FB75C5FFE5EC
:10111B00C430E7FB75C5FFE5C430E7FB75C5FFE5DC
:10112B00C430E7FB75C5FFE5C430E7FB75C5FFE5CC
:10113B00C430E7FB75C5FFE5C430E7FB75C5FFE5BC
:10114B00C430E7FB75C5FFE5C430E7FB75C5FFE5AC
:10115B00C430E7FB75C5FFE5C430E7FB75C5FFE59C
:10116B00C430E7FB75C5FFE5C430E7FB75C5FFE58C
:10117B00C430E7FB75C5FFE5C430E7FB75C5FFE57C
:10118B00C430E7FB75C5FFE5C430E7FB75C5FFE56C
:10119B00C430E7FB75C5FFE5C430E7FB75C5FFE55C
:1011AB00C430E7FB75C5FFE5C430E7FB75C5FFE54C
:1011BB00C430E7FB75C5FFE5C430E7FB75C5FFE53C
:1011CB00C430E7FB75C5FFE5C430E7FB75C5FFE52C
:1011DB00C430E7FB75C5FFE5C430E7FB75C5FFE51C
:1011EB00C430E7FB75C5FFE5C430E7FB75C5FFE50C
:1011FB00C430E7FB75C5FFE5C430E7FB75C5FFE5FC
:10120B00C430E7FB75C5FFE5C430E7FB75C5FFE5EB
:10121B00C430E7FB75C5FFE5C430E7FB75C5FFE5DB
:10122B00C430E7FB75C5FFE5C430E7FB75C5FFE5CB
:10123B00C430E7FB75C5FFE5C430E7FB75C5FFE5BB
:10124B00C430E7FB75C5FFE5C430E7FB7C400213F8
:10125B0029209803021329AD99BD2B03021327BD37
:10126B002D03021327BD69030212F3BD6D02801219
:10127B00BD70028041BD71028066BD7502801E0289
:10128B001327C002C003C0047401C0E0758214129E
:10129B0003D91581D004D003D002021327C002C09A
:1012AB0003C004E4C0E07582141203D91581D00485
:1012BB00D003D0028066C298C002C003C0041205DE
:1012CB00C5D004D003D002209805E599B472F8C0BC
:1012DB0002C003C0041205DDD004D003D002803C51
:1012EB0075A61E75A6E180FEC002C003C0041206DF
:1012FB0082AD82AE83D004D003D002C002C003C043
:10130B0004C005C0067419C0E07473C0E0125EBD62
:10131B00E58124FCF581D004D003D002C2987D0076
:10132B00EC2AFAED3BFB021044C2937582FF1203C9
:10133B00AD7582FF1203ADD29175820022C010856C
:10134B008110AA82C291758214C0021203B9D00215
:10135B0074404AF582C0021203ADD002E51024FAA4
:10136B00040404F88682C0021203ADD002E51024F7
:10137B00FA0404F88682C0021203ADD002E51024F1
:10138B00FA04F88682C0021203ADD002E51024FAEB
:10139B00F886037C007D007E008B82C0021203ADB9
:1013AB00D002EAB40100E433FA60047A9580027A41
:1013BB00FF8A821203AD7582FF1203AD758200D0D6
:1013CB0010227AFF7B00BB080050197582FFC00307
:1013DB001203ADAC82D0038C02BAFF0280038A8267
:1013EB00220B80E28A82221213CDAA828A037A0010
:1013FB007811760008A6037582FF1203ADAA827BD3
:10140B00007811EA46F6EB0846F6781186820886D4
:10141B008322AA82AB837C007D00C3EC9AED9B50A8
:10142B00147E9A7F031EBEFF011FEE4F70F70CBC9C
:10143B0000E80D80E522D29175C372D29175820AB4
:10144B001203B9C291901000E4F0A3F07AE87B0389
:10145B00900001C002C00312141DD003D002C002C1
:10146B00C003E4C0E0C0E0C0E0C0E075820012132E
:10147B0048E58124FCF581D003D002C002C00312E1
:10148B0013CDAC82D003D002BC010280091ABAFF83
:10149B00011BEA4B70BAEA4B700475820122E4C05F
:1014AB00E0C0E0C0E0C0E0758237121348E581244C
:1014BB00FCF581E4C0E0C0E0C0E0C0E07582291219
:1014CB001348E58124FCF5811213CDE582FA24FE45
:1014DB00400B9010007402F0E4A3F0800990100010
:1014EB007401F0E4A3F07AD07B07900001C002C036
:1014FB000312141DD003D002901000E0FCA3E0FDFA
:10150B00BC023FBD003CC002C003E4C0E0C0E0C071
:10151B00E0C0E0758237121348E58124FCF581D0D9
:10152B0003D002C002C003E4C0E0C0E0C0E0C0E0F2
:10153B00758229121348E58124FCF581D003D00272
:10154B00801DC002C003E4C0E0C0E0C0E0C0E07595
:10155B008201121348E58124FCF581D003D002C02F
:10156B0002C0031213CDE582D003D002600C1ABA6D
:10157B00FF011BEA4B60030214F5EA4B7004758202
:10158B000122E4C0E0C0E0C0E0C0E075820D1213A0
:10159B0048E58124FCF5811213F2AA82AB83EA4B56
:1015AB00600475820222E4C0E07402C0E0E4C0E093
:1015BB00C0E0758210121348E58124FCF5811213EB
:1015CB00CDD29175C370D29175820022C0108581E6
:1015DB0010AA82AB83ACF0FDEA2ACB33CC33CD7AA5
:1015EB0000C002C003C004C005758211121348E588
:1015FB008124FCF5811213CDAA82C0021213CDAB4C
:10160B0082D0027CFF7DFFBBFF1E1CBCFF011DECCB
:10161B004D6015C002C004C0051213CDAE82D005BB
:10162B00D004D0028E0380DFEA7005BBFE0280057A
:10163B007582018056E51024FBF8860208860308A4
:10164B0086047D007E027582FFC002C003C004C009
:10165B0005C0061203ADAF82D006D005D004D0036F
:10166B00D0028A828B838CF0EF125EA4A3AA82AB8A
:10167B00831DBDFF011EED4E70CC7582FF1203ADB5
:10168B007582FF1203ADD291758200D01022C0106B
:10169B00858110AA82AB83ACF0FDEA2ACB33CC3325
:1016AB00CD7A00C002C003C004C0057582181213A6
:1016BB0048E58124FCF5811213CD7582FE1203AD32
:1016CB00E51024FBF886020886030886047D007E5D
:1016DB00028A828B838CF0126242FFA3AA82AB83B5
:1016EB008F82C002C003C004C005C0061203ADD078
:1016FB0006D005D004D003D0021DBDFF011EED4E58
:10170B0070CF7582FF1203AD7582FF1203AD758228
:10171B00FF1203ADAA82BAFF0280087582FF120383
:10172B00AD80EBD2917582FF1203AD758200D010A4
:10173B00227582FF1203AD7AF47B017582FFC00222
:10174B00C0031203ADAC82D003D002900001C002E3
:10175B00C003C00412141DD004D003D002BCFF027E
:0E176B0080091ABAFF011BEA4B70D08C822253
:107319001B38417665726167652042697420526144
:0C73290074653A202564204B62707300EC
:10177900C010858110C082C083C0F0C0E00581051A
:10178900810581E5102405F8A60908A60A08A60B13
:10179900E5102405F8740426FEE40836FF088602DD
:1017A9008E828F838AF0126242FEA3126242FFA3E5
:1017B900126242FAA3126242FBA81008E6B50612A9
:1017C90008E6B5070D08E6B5020808E6B503030201
:1017D900185AA81008E60846084608466073E51036
:1017E9002405F8742026FAE40836FB0886047401F7
:1017F900C0E0A81008E6C0E008E6C0E008E6C0E0DE
:1018090008E6C0E0C002C003C004758200120D3EA4
:10181900AA82E58124F8F581BA0002800575820063
:101829008032E5102405F8740426FAE40836FB082A
:1018390086048A828B838CF0A81008E6125EA4A322
:1018490008E6125EA4A308E6125EA4A308E6125EE7
:10185900A4758201851081D01022C010858110C025
:1018690082C083C0F0C0E0E581240FF581E5102432
:101879000DF8A60908A60A08A60BA81008C3E6943D
:101889000208E6940008E6940008E6940050030272
:101899001B93E510240DF8741826FEE40836FF089A
:1018A90086028E828F838AF0126242FEA3126242FE
:1018B900FFA3126242FAA3126242FBA81008C3E610
:1018C9009E08E69F08E69A08E69B4003021B93E5FB
:1018D90010240DF8740826FAE40836FB0886048AF1
:1018E900828B838CF0126242FAA3126242FBA3122A
:1018F9006242FCA3126242FDE5102409F8A602081F
:10190900A60308A60408A605E510240DF8741C26EC
:10191900FEE40836FF0886028E828F838AF01262FF
:1019290042FABA0102800FBA0203021A84BA030307
:10193900021AFB021B93A810088682088683740387
:10194900C0E0E4C0E0125FC5AA82AB8315811581AE
:10195900E5102407F8A602EBC313C613C608F6E57B
:1019690010240704F8E6C313FCE4FDFEFFE5102488
:1019790009F8EC26FCED0836FDEE0836FEEF0836D0
:10198900FF8C828D838EF0121779E5827003021B1A
:1019990093E510240DF8742026FCE40836FD08862A
:1019A90006E5102407F8860774010856FAEF2CFC9F
:1019B900EA3DFD8C828D838EF0126242FCE5102493
:1019C90005F8A604087600E5102407F8740126F640
:1019D900E40836F6E510240704F8E6C313FBE4FD32
:1019E900FEFFE5102409F8EB26FBED0836FDEE08AD
:1019F90036FEEF0836FF8B828D838EF0121779E55C
:101A0900827003021B93E510240DF8742026FBE471
:101A19000836FD088606E5102407F88607740108CC
:101A290056FAEF2BFBEA3DFD8B828D838EF0126215
:101A390042FB8B027B00E5102405F8EB46F6EA0829
:101A490046F6A81008E630E018E5102405F88602E5
:101A590008E6C4CAC4540F6ACA540FCA6ACAFB80CA
:101A69000CE5102405F88602740F0856FB7C007DEE
:101A7900008A828B838CF0ED021B99A810080886D6
:101A8900020886030886047D00E5102409F8EA2681
:101A9900FAEB0836FBEC0836FCED0836FD8A828B3A
:101AA900838CF0121779E5827003021B93E51024E9
:101AB9000DF8742026FAE40836FB088604A81008F5
:101AC9008605088606EECD25E0CD33FE530601EDE9
:101AD9002AFAEE3BFB8A828B838CF0126242FAA3CC
:101AE900126242FB7C007D008A828B838CF0ED02BE
:101AF9001B99A81008860208E6A2E7CA33CA33CAA6
:101B09005401FB08E625E04BFB860408E6A2E7CC76
:101B190033CC33CC5401FDE5102409F8EA26FAEB5D
:101B29000836FBEC0836FCED0836FD8A828B838C7F
:101B3900F0121779E5826052E510240DF874202619
:101B4900FAE40836FB088604A81008860508860604
:101B5900EECD25E0CD33CD25E0CD33FE530601EDA5
:101B69002AFAEE3BFB8A828B838CF0126242FAA33B
:101B7900126242FBA3126242FCA3126242FD5305A8
:101B89000F8A828B838CF0ED8006900001E4F5F0DA
:101B9900851081D01022C010858110C082C083C0F9
:101BA900F0C0E0E581240BF581E5102405F8A609CC
:101BB90008A60A08A60BA81008E624FEF608E634CB
:101BC900FFF608E634FFF608E634FFF6E5102405CB
:101BD900F8741826FBE40836FC0886058B828C838A
:101BE9008DF0126242FBA3126242FCA3126242FD13
:101BF900A3126242FAEB24FEFBEC34FFFCED34FF46
:101C0900FDEA34FFFAA81008C3E69B08E69C08E63B
:101C19009D08E69A4009900000E4F5F0021CBCE535
:101C2900102405F8741D26FAE40836FB0886048A90
:101C3900828B838CF0126242FA7B007C007D00C0AB
:101C490002C003C004C005A810088682088683085C
:101C590086F008E612625EC0E0E5102408F8D0E0DC
:101C6900A68208A68308A6F008F6E58124FCF5817A
:101C7900E5102405F8741026FEE40836FF088602EC
:101C89008E828F838AF0126242FEA3126242FFA300
:101C9900126242FAA3126242FBE5102408F8EE260A
:101CA900FEEF0836FFEA0836FAEB0836FB8E828F1C
:101CB900838AF0851081D01022C010858110C082DE
:101CC900C083C0F0E5812419F581E510240AF8A63E
:101CD9000908A60A08A60BA81008E5102417F97424
:101CE9000226F7E4083609F70809E6F7E51024178C
:101CF900F886820886830886F0126242FAA3126285
:101D090042FBE5102408F874012AF6E43B08F6E5DD
:101D1900102408F8E6540F6003021F2EA81008E5E6
:101D290010240DF9740F26F7E4083609F70809E6B7
:101D3900F7E510240DF886820886830886F012627A
:101D490042FCA3126242FDA3126242FEA312624246
:101D5900FF0CBC00090DBD00050EBE00010FE5100A
:101D6900240DF886820886830886F0EC125EA4A307
:101D7900ED125EA4A3EE125EA4A3EF125EA4A81056
:101D890008E5102410F9740B26F7E4083609F7085A
:101D990009E6F7E5102410F886820886830886F09C
:101DA900E5102413F9126242F7A312624209F7A35C
:101DB90012624209F7A312624209F7E5102413F8E7
:101DC900E60846084608467035E510240AF8740204
:101DD90026FCE40836FD0886068C828D838EF01277
:101DE9006242FCA3126242FDE5102408F8C3E69C96
:101DF90008E69D5003021F2E758200021F4DE51053
:101E09002408F8860408E6C4CCC4540F6CCC540FDB
:101E1900CC6CCCFDE510240AF8741D26FEE40836C6
:101E2900FF0886028E828F838AF0126242FE7A0050
:101E39001EBEFF011AEE5204EA5205EC4D60030280
:101E49001F2EE5102413F886820886830886F00879
:101E5900E6121863AA82AB83ACF0FDE5102404F8FE
:101E6900A60208A60308A60408A605E5102404F896
:101E7900C3E6940208E6940008E6940008E6940094
:101E8900403CE510240AF8741826FEE40836FF08D9
:101E990086028E828F838AF0126242FEA312624208
:101EA900FFA3126242FAA3126242FBE5102404F86E
:101EB900C3E69E08E69F08E69A08E69B40067582F7
:101EC90000021F4DE5102410F886820886830886D3
:101ED900F0E5102404F9E7125EA4A309E7125EA451
:101EE900A309E7125EA4A309E7125EA4E51024047E
:101EF900F886820886830886F008E6121B9FAA8264
:101F0900AB83ACF0FDE510240DF8868208868308C2
:101F190086F0EA125EA4A3EB125EA4A3EC125EA4FF
:101F2900A3ED125EA4E5102417F8868208868308BB
:101F390086F0E5102408F9E7125EA4A309E7125E0A
:101F4900A4758201851081D01022C010858110C02E
:101F590082C083C0F0E581240BF581A810087409BB
:101F690026FDE40836FE088607E5102406F8A605CE
:101F790008A60608A607E51024FBF8740C26FDE45C
:101F89000836FE0886078D828E838FF0126242FD25
:101F990074085DFEE5102406F8E5102409F9E6F752
:101FA9000809E6F70809E6F77B00BB0800400302C9
:101FB900203CC005E51024FBF8EB26FDE40836FFBC
:101FC9000886028D828F838AF0126242FDE5102411
:101FD90005F8A605E5102405F8E4B6200104D005A6
:101FE9007051E5102405F8B60507E5102405F876C3
:101FF900E5EE601DE5102405F8B641004013E51033
:102009002405F8E624A54009E5102405F8742026DE
:10201900F6E5102409F886820886830886F0E5101B
:102029002405F9E7125EA4A31818A68208A6830B53
:10203900021FB3E5102409F8E5102406F9E6F708AC
:1020490009E6F70809E6F7E51024FBF8740826FA0B
:10205900E40836FB0886048A828B838CF01262427C
:10206900FABA200302213DE5102409F88682088680
:10207900830886F0742E125EA4E5102409F8E51091
:102089002406F9740126F7E4083609F70809E6F782
:1020990074105DFAE5102406F8860308860408869C
:1020A90005E5102404F87608E5102404F8B60B00B9
:1020B9004003022130C002E51024FBF8E510240496
:1020C900F9E726FFE40836FA0886068F828A838EA6
:1020D900F0126242FFE5102405F8A607E510240571
:1020E900F8E4B6200104D002703DEA601DE5102431
:1020F90005F8B641004013E5102405F8E624A5408B
:1021090009E5102405F8742026F68B828C838DF05E
:10211900E5102405F8E6125EA4A3AB82AC83E510B2
:102129002404F8060220B1E5102406F8A60308A63F
:102139000408A605E5102406F88682088683088621
:10214900F0E4125EA4A81008740826FAE40836FB25
:10215900088604E51024FBF8740B26FDE40836FE16
:102169000886078D828E838FF0126242FD8A828BE8
:10217900838CF0125EA4E51024FBF8741C26FAE4A3
:102189000836FB0886048A828B838CF0126242FA35
:10219900A3126242FBA3126242FCA3126242FDA88F
:1021A900100886820886830886F0EA125EA4A3EBEB
:1021B900125EA4A3EC125EA4A3ED125EA4A81008FB
:1021C900740426FAE40836FB088604E51024FBF8B3
:1021D900741826FDE40836FE0886078D828E838FE3
:1021E900F0126242FDA3126242FE8A828B838CF056
:1021F900ED125EA4A3EE125EA4A81008740626FAD6
:10220900E40836FB088604E51024FBF8741626FD5D
:10221900E40836FE0886078D828E838FF0126242AB
:10222900FDA3126242FE8A828B838CF0ED125EA4BA
:10223900A3EE125EA4851081D01022C010858110F2
:10224900C082C083C0F0058105810581E51024FBAA
:10225900F88605088606088607740BC0E0E4C0E026
:102269007420C0E08D828E838FF012611115811563
:10227900811581E5102405F87600E5102406F87625
:1022890018E5102404F876007E08C006A810088610
:10229900820886830886F0126242FEA3126242FF18
:1022A900A3126242FD74012EFAE43FFB8D04A810CB
:1022B9000886820886830886F0EA125EA4A3EB12D8
:1022C9005EA4A3EC125EA48E828F838DF01262420B
:1022D900FE8E07D006EF6003BF2F36E5102404F801
:1022E900E6700302244EE51024FBF8740B26FAE489
:1022F9000836FB088604E5102405F8E5102406F9DC
:10230900E756FD8A828B838CF0125EA48F820224A9
:1023190051EF24DF400302244EBF7F0302244EBF46
:102329002E32E5102405F8E630E00302244EE510CC
:102339002404F8B60100500302244EE5102404F8E1
:10234900E624F7500302244EE5102404F876087EAB
:102359000B022293BF81004005EF2460500ABFE0C1
:1023690000401EEF24034019E5102404F8E6700527
:10237900BFE5027F05E5102405F8E66401F60224AD
:102389001BBF220302244EEF24D64003022412EF7E
:1023990024D3400302244EEF24C64003022412EF43
:1023A90024C0400302244EE5102405F8E620E05934
:1023B900BF7C0302244EBF5B004008EF24A2400308
:1023C90002244EBF4100401CEF24A54017BE080B54
:1023D900E5102406F8E654F7F68009E5102406F816
:1023E900E654EFF6BF61004020EF2485401BEF243F
:1023F900E0FFBE080BE5102405F8E64408F680095D
:10240900E5102405F8E64410F6E5102405F8E6542D
:10241900FEF6E5102404F8C3E69E5029E5102404CD
:10242900F88602E5102404F806E51024FBF8EA26EC
:10243900FAE40836FB0886048A828B838CF0EF1253
:102449005EA4022293758201851081D01022C010EA
:10245900858110C082C083C0F0E5812417F581E52C
:1024690010240BF8A60908A60A08A60BE510240BE8
:10247900F8740C26FDE40836FE0886078D828E83E3
:102489008FF0126242FAA3126242FBA3126242FC6B
:10249900A3126242FDE5102404F8A60208A6030867
:1024A900A60408A605E510240BF8741C26FDE4080B
:1024B90036FE0886078D828E838FF0126242FDBD3B
:1024C9000302800302257FA81008740B26FDE40887
:1024D90036FE088607A81008740726FAE40836FBB2
:1024E9000886048A828B838CF0E5102404F8E612AE
:1024F9005EA4A308E6125EA4A308E6125EA4A308DC
:10250900E6125EA48D828E838FF0E5102404F8E62E
:10251900125EA4A308E6125EA4A308E6125EA4A3B1
:1025290008E6125EA4A81008E510240EF9740F2617
:10253900F7E4083609F70809E6F7E5102404F886F0
:10254900820886830886F008E6121B9FAD82AE8357
:10255900AFF0FAE510240EF886820886830886F023
:10256900ED125EA4A3EE125EA4A3EF125EA4A3EA89
:10257900125EA40225FCA81008740B26FAE408369A
:10258900FB088604A81008740726FDE40836FE082F
:1025990086078D828E838FF0E4125EA4A3E4125E17
:1025A900A4A3E4125EA4A3E4125EA48A828B838CA2
:1025B900F0E4125EA4A3E4125EA4A3E4125EA4A351
:1025C900E4125EA4A81008740F26FAE40836FB0882
:1025D90086048A828B838CF0E5102404F8E6125E67
:1025E900A4A308E6125EA4A308E6125EA4A308E663
:1025F900125EA4A81008740226FAE40836FB0886BD
:10260900048A828B838CF0E4125EA4A3E4125EA494
:10261900A81008740426FAE40836FB0886048A829E
:102629008B838CF0E510240BF8E6125EA4A308E670
:10263900125EA4A308E6125EA4E51024F8F8860247
:102649000886030886048A828B838CF012624270A2
:1026590027E51024F5F886020886030886048A828D
:102669008B838CF0E4125EA4A3E4125EA4A3E412AB
:102679005EA47582000229E4E51024F8FA7B007C47
:1026890040E51024FBF8E6C0E008E6C0E008E6C033
:10269900E08A828B838CF0122244AA8215811581EB
:1026A9001581BA01067582040229E4E510240BF8A4
:1026B900742026FBE40836FC088605A81008E510F6
:1026C900240EF9740F26F7E4083609F70809E6F726
:1026D900C003C004C005E510240EF886820886836D
:1026E9000886F0126242FEA3126242FFA3126242FE
:1026F900FBA3126242FC8E828F838BF0C002C0035F
:10270900C004C005121779E582D005D004D003D0E2
:1027190002D005D004D00370067582080229E4C0EE
:1027290002A81008E5102411F9740226F7E4083606
:1027390009F70809E6F7E5102411F8868208868367
:102749000886F0126242FEA3126242FF53060FE4AA
:10275900FFC42354E0CEC423CE6ECE54E0CE6EFF28
:10276900EE2BFEEF3CFF8D02E5102408F8A60608C3
:10277900A60708A602E5102408F8868208868308B9
:1027890086F0126242D0027014EAB40100E433FE0A
:1027990060047E0280027E038E820229E4E5102411
:1027A90008F886820886830886F0126242FEBEE532
:1027B90002806FC003C004C005E5102408F8740B3B
:1027C90026FEE40836FF0886038E828F838BF0127B
:1027D9006242FE5408D005D004D0037045C002C03F
:1027E90003C004C005740BC0E0E4C0E0E51024FB9D
:1027F900F8E6C0E008E6C0E008E6C0E0E510240815
:10280900F886820886830886F0125FE7AE82AF8376
:10281900E58124FBF581D005D004D003D002EE4F29
:102829006039A8100886820886830886F0C002C02D
:1028390003C004C005121CC2E582D005D004D00330
:10284900D00260030226D9EAB40100E433FB600434
:102859007B0280027B038B820229E4EA702EE51059
:1028690024F5F886020886030886048A828B838CFD
:10287900F0E5102408F8E6125EA4A308E6125EA4A7
:10288900A308E6125EA47582000229E4E510240873
:10289900F8740B26FAE40836FB0886048A828B83CF
:1028A9008CF0126242FA20E4067582030229E4E5FB
:1028B900102408F8741426FAE40836FB0886048AFA
:1028C900828B838CF0126242FAA3126242FBE4FC0F
:1028D900FDE5102414040404F8A60318A6021876CA
:1028E90000187600E5102408F8741A26FEE4083664
:1028F900FF0886028E828F838AF0126242FEA3123B
:102909006242FFE4FAFBE5102414F8E6420608E601
:10291900420708E6420208E64203E5102404F8A645
:102929000608A60708A60208A603A81008740B261D
:10293900FAE40836FB088604A81008740726FDE4A3
:102949000836FE0886078D828E838FF0E5102404F1
:10295900F8E6125EA4A308E6125EA4A308E6125ED6
:10296900A4A308E6125EA48A828B838CF0E5102466
:1029790004F8E6125EA4A308E6125EA4A308E61210
:102989005EA4A308E6125EA4E5102404F886820872
:1029990086830886F008E6121B9FAA82AB83ACF0F7
:1029A900FDE510240EF886820886830886F0EA126F
:1029B9005EA4A3EB125EA4A3EC125EA4A3ED125EC7
:1029C900A4E5102411F886820886830886F074022B
:1029D900125EA4A3E4125EA4022681851081D010A0
:1029E90022C010858110C082C083C0F0C0E0AE094A
:1029F900AF0AAA0B74202EFBE43FFC8A05C002C073
:102A090006C0077401C0E0A81008E6C0E008E6C0E7
:102A1900E008E6C0E008E6C0E0C003C004C00575F0
:102A29008200120D3EAB82E58124F8F581D007D0F2
:102A390006D002BB00028006758202022B28742090
:102A49002EFBE43FFC8A0574FE2BFB74013CFC8BD6
:102A5900828C838DF0126242FBA3126242FCBB5549
:102A690005BCAA028006758202022B2874202EFB5F
:102A7900E43FFC8A0574362BFBE43CFCC002C0062B
:102A8900C0077403C0E0E4C0E07435C0E07473C0EB
:102A9900E07480C0E08B828C838DF0125FE7AB829B
:102AA900AC83E58124FBF581D007D006D002EB4C3D
:102AB9007004F582806974202EFBE43FFC8A05745A
:102AC900522BFBE43CFCC002C006C0077405C0E001
:102AD900E4C0E07439C0E07473C0E07480C0E08B76
:102AE900828C838DF0125FE7AB82AC83E58124FB96
:102AF900F581D007D006D002EB4C702074202EFE51
:102B0900E43FFF74282EFEE43FFF8E828F838AF014
:102B1900126242FE20E705758200800375820185F5
:102B29001081D01022C010858110C082C083C0F0EE
:102B3900E581242DF581A8100886820886830886F8
:102B4900F0126242FDA3126242FEA3126242FFE545
:102B5900102415F8A60908A60A08A60B8D028E03EB
:102B69008F048A828B838CF0E5102418F812624254
:102B7900F6E5102418F8B620070ABA00E50B80E23A
:102B89008A058B068C07E5102418F8B62F097401FD
:102B99002AFDE43BFE8C07A8100886820886830874
:102BA90086F0ED125EA4A3EE125EA4A3EF125EA45A
:102BB900E5102415F8E608460846700675820A02EB
:102BC90032F7E5102415F8741C26FAE40836FB08D8
:102BD90086048A828B838CF01262426012758200AD
:102BE900120D2CE582FA20E0067582000232F77494
:102BF90020C0E07402C0E0E4C0E0E5102415F886C6
:102C0900820886830886F012611115811581158164
:102C1900758200120D0BAB828B02EA30E0067582D9
:102C2900010232F7E5102405F8E4F608F608F6087B
:102C3900F67582001229EAAA82E5102404F8A60290
:102C4900E5102404F8B601028003022CD5E510240E
:102C590015F8742026FBE40836FC08860274C22B9A
:102C6900FB74013CFC8B828C838AF0126242605CAB
:102C7900E5102415F8742026FBE40836FC088605BF
:102C890074C62BFB74013CFC8B828C838DF0126221
:102C990042FBA3126242FCA3126242FDA3126242EA
:102CA900FEE5102405F8A60308A60408A60508A64B
:102CB90006E5102405F886820886830886F008E66A
:102CC9001229EAAB82E5102404F8A603E5102404CE
:102CD900F8E6702EE5102415F8742026FBE4083672
:102CE900FC088605740B2BFBE43CFC8B828C838DE2
:102CF900F0126242FBA3126242FCBB0005BC020255
:102D0900800675820B0232F7E5102415F874202627
:102D1900FBE40836FC08860574162BFBE43CFC8BA7
:102D2900828C838DF0126242FBA3126242FCE51091
:102D39002409F8A60308A604087600087600E51019
:102D49002409F8E60846084608467040E5102415A7
:102D5900F8742026FAE40836FB08860474242AFA53
:102D6900E43BFB8A828B838CF0126242FAA31262E3
:102D790042FBA3126242FCA3126242FDE510240940
:102D8900F8A60208A60308A60408A605E510241556
:102D9900F8741426FFE40836FB0886048F828B83B7
:102DA9008CF0E5102409F8E6125EA4A308E6125E89
:102DB900A4A308E6125EA4A308E6125EA4E5102403
:102DC90015F8741E26FAE40836FE088607E510246D
:102DD90015F8E5102419F9742026F7E4083609F7DF
:102DE9000809E6F7E5102419F8741026FCE40836FA
:102DF900FD0886038C828D838BF0126242FC8A82E5
:102E09008E838FF0125EA47B007D007E00C004C01B
:102E190003C005C006E5102409F8868208868308E0
:102E290086F008E612625EAB82AC83ADF0FEE58106
:102E390024FCF581E5102409F8A60308A60408A6D0
:102E49000508A606E5102415F8E510241CF97408F0
:102E590026F7E4083609F70809E6F7E5102419F812
:102E6900740E26FEE40836FF0886038E828F838B54
:102E7900F0126242FEA3126242FFE4FBFCE5102459
:102E890005F8EE26FEEF0836FFEB0836FBEC0836B0
:102E9900FCE510241CF886820886830886F0EE1269
:102EA9005EA4A3EF125EA4A3EB125EA4A3EC125ED0
:102EB900A4E5102415F8E5102420F9741D26F7E47B
:102EC900083609F70809E6F7E5102419F8740D26FC
:102ED900FEE40836FF0886038E828F838BF0126228
:102EE90042FEE5102420F886820886830886F0EEE3
:102EF900125EA4E5102415F8E5102423F9740226BE
:102F0900F7E4083609F70809E6F7E5102419F87413
:102F19001126FEE40836FF0886038E828F838BF024
:102F2900126242FEA3126242FFE5102423F8868250
:102F39000886830886F0EE125EA4A3EF125EA4E56C
:102F4900102419F8741326FBE40836FC0886058B4F
:102F5900828C838DF0126242FBA3126242FCE5105F
:102F6900240DF8A60308A604087600087600E510E3
:102F7900240DF8E60846084608467040E510241571
:102F8900F8742026FAE40836FB08860474202AFA25
:102F9900E43BFB8A828B838CF0126242FAA31262B1
:102FA90042FBA3126242FCA3126242FDE510240D0A
:102FB900F8A60208A60308A60408A605E510241524
:102FC900F8E5102426F9741826F7E4083609F708F5
:102FD90009E6F7E5102415F8742026FDE40836FE05
:102FE900088603740E2DFDE43EFE8D828E838BF0E0
:102FF900126242FDA3126242FEE4FBFCE510240DBD
:10300900F8E6C39DFD08E69EFE08E69BFB08E69CE4
:10301900FCE5102409F8E510242AF9EDC396F7EE2A
:10302900089609F7EB089609F7EC089609F7E510F1
:103039002423F886820886830886F0126242FFA359
:10304900126242FBC4CFC4540F6FCF540FCF6FCF5E
:10305900FBE4FCFDE510242AF8E6C39FF608E69B8D
:10306900F608E69CF608E69DF6E5102420F8868227
:103079000886830886F0126242FE7B007C007D0090
:10308900C006C003C004C005E510242AF8868208DA
:1030990086830886F008E61260A4AB82AC83ADF0A3
:1030A900FEE58124FCF581E5102411F874022BF664
:1030B900E43C08F6E43D08F6E43E08F6E510241180
:1030C900F88607088603088604088605E51024267D
:1030D900F886820886830886F0E5102411F9E7123C
:1030E9005EA4A309E7125EA4A309E7125EA4A309DB
:1030F900E7125EA4E5102404F87601C374F79F74FF
:103109000F9BE49CE49D5007E5102404F87602C364
:1031190074F79F74FF9BE49CE49D5007E510240419
:10312900F87603E5102404F8B60369E5102415F8C8
:10313900E510242AF9740C26F7E4083609F708097A
:10314900E6F7E5102415F8742026FEE40836FF0892
:103159008602742C2EFEE43FFF8E828F838AF01242
:103169006242FAA3126242FEA3126242FFA31262F2
:1031790042FBE510242AF886820886830886F0EA4D
:10318900125EA4A3EE125EA4A3EF125EA4A3EB1237
:103199005EA4806BE5102415F8E510242AF9740C57
:1031A90026F7E4083609F70809E6F7E510241CF8BC
:1031B90086820886830886F0126242FEA312624262
:1031C900FFA3126242FAA3126242FBE5102409F836
:1031D900E62EFE08E63FFF08E63AFA08E63BFBE57D
:1031E90010242AF886820886830886F0EE125EA4E7
:1031F900A3EF125EA4A3EA125EA4A3EB125EA4E5F8
:10320900102415F8E510242AF9741026F7E4083675
:1032190009F70809E6F7E510241CF8868208868371
:103229000886F0126242FEA3126242FFA3126242B2
:10323900FAA3126242FBE5102409F8E5102426F9E5
:10324900E62EF708E63F09F708E63A09F708E63BEC
:1032590009F7E5102423F886820886830886F01288
:103269006242FCA3126242FDC4CCC4540F6CCC541C
:103279000FCC6CCCFDE4FAFBE5102426F8EC26FC17
:10328900ED0836FDEA0836FAEB0836FBE510242A84
:10329900F886820886830886F0EC125EA4A3ED12F4
:1032A9005EA4A3EA125EA4A3EB125EA4E5102415A2
:1032B900F8741C26FAE40836FB0886048A828B8394
:1032C9008CF0E5102404F8E6125EA4050CE4B50CB4
:1032D90002050DE5102415F886820886830886F014
:1032E900E50C125EA4A3E50D125EA475820085109B
:1032F90081D01022C010858110AA82AB83ACF0EA7C
:103309004B4C601F8A828B838CF0126242FAA312A3
:103319006242FBE51024FCF8E6B5020708E6B503AE
:1033290002800575820C8013758200120D2CE582CE
:1033390030E0057582018003758200D01022C0102B
:10334900858110E582FA60057582058066AA09AB58
:103359000AAC0BE51024FBF88605088606088607E3
:103369008D098E0A8F0BEA4B4C6026C005C006C03A
:10337900077420C0E07402C0E0E4C0E08A828B8355
:103389008CF0126111158115811581D007D006D0F5
:1033990005ED4E4F601A7420C0E07402C0E0E4C02D
:1033A900E08D828E838FF01261111581158115814F
:1033B900758200D01022C010858110C082C083C0E0
:1033C900F0E5812435F581E5102426F8A60908A63B
:1033D9000A08A60BA81008E510242FF9740426F78B
:1033E900E4083609F70809E6F7E510242FF886827C
:1033F9000886830886F0E4125EA4A3E4125EA4A3FF
:10340900E4125EA4E51024FAF8E65401F6E5102466
:10341900FBFA7B007C40E4C0E08A828B838CF0124B
:103429002B2EAA821581BA000280058A8202368271
:10343900E5102404FBE5102429F8A6030876000802
:103449007640E510241AFE7A007F40E5102407FC37
:103459007D007B40E5102429F8E6C0E008E6C0E0DD
:1034690008E6C0E0E51024FBF8E6C0E008E6C0E0A5
:1034790008E6C0E0C006C002C0078C828D838BF0CD
:10348900122457AB82E58124F7F5818B02E4BA0057
:10349900010470058A82023682E5102404F8B60018
:1034A9000A08B6000608B60002801EE5102404F8D2
:1034B900740B26FDE40836FE0886078D828E838FFD
:1034C900F0126242FD54106006758202023682A82B
:1034D9001008740226FAE40836FB0886048A828BEF
:1034E900838CF0E51024FAF8E6125EA4A81008E52A
:1034F90010242CF9740F26F7E4083609F70809E6B1
:10350900F7E5102404F8741426FAE40836FB088653
:10351900048A828B838CF0126242FAA3126242FB04
:10352900E4FCFDE5102432040404F8A60318A602FD
:10353900187600187600E5102404F8741A26FEE4BB
:103549000836FF0886028E828F838AF0126242FE55
:10355900A3126242FFE4FAFBE5102432F8E64206C0
:1035690008E6420708E6420208E64203E510242C71
:10357900F886820886830886F0EE125EA4A3EF120D
:103589005EA4A3EA125EA4A3EB125EA4A81008E548
:10359900102432F9740B26F7E4083609F70809E60E
:1035A900F7E5102404F8741C26FDE40836FE0886A5
:1035B900078D828E838FF0126242FDA3126242FE52
:1035C900A3126242FFA3126242FAE5102432F8867E
:1035D900820886830886F0ED125EA4A3EE125EA42B
:1035E900A3EF125EA4A3EA125EA4A810087407262A
:1035F900FAE40836FB0886048A828B838CF0E4128D
:103609005EA4A3E4125EA4A3E4125EA4A3E4125E82
:10361900A4A81008740326FAE40836FB0886048A6D
:10362900828B838CF07401125EA4E510242FF88636
:10363900820886830886F0E5102426F9E7125EA43D
:10364900A309E7125EA4A309E7125EA4E5102426E4
:10365900F886820886830886F0126242FAA312620B
:1036690042FBA8100886820886830886F0EA125E63
:10367900A4A3EB125EA4758200851081D01022C02C
:1036890010858110C082C083C0F0E581243AF5819C
:10369900E51024FBF88605088606088607E5102448
:1036A90012F8A60508A60608A607A8100874042695
:1036B900FDE40836FE0886078D828E838FF012623C
:1036C90042FDA3126242FEA3126242FFE5102415D5
:1036D900F8A60508A60608A607E51024F6F8E510D9
:1036E9002418F9E6F70809E6F70809E6F7E51024CA
:1036F90018F886820886830886F0E4125EA4A3E49B
:10370900125EA4A8100886820886830886F01262D1
:1037190042FAA3126242FBC002C003E5102415F865
:1037290086820886830886F01232FDAA82158115E1
:1037390081BA000280058A82023DBCA81008E51002
:103749002438F9740226F7E4083609F70809E6F778
:10375900E5102438F886820886830886F0126242CA
:10376900FA30E706758208023DBCEA20E006758258
:1037790006023DBCA81008740B26FAE40836FB08BB
:1037890086048A828B838CF0E510241EF81262422B
:10379900F6A312624208F6A312624208F6A3126265
:1037A9004208F6A81008E510241BF9740726F7E467
:1037B900083609F70809E6F7E510241BF886820898
:1037C90086830886F0126242FEA3126242FFA312A8
:1037D9006242FAA3126242FBE510241EF8E6C39E78
:1037E900FE08E69FFF08E69AFA08E69BFBE5102427
:1037F90008F8A60608A60708A60208A603E51024E5
:10380900F9F88602088603E4FCFDE5102408F8C3EC
:10381900E69A08E69B08E69C08E69D5010E5102408
:1038290008F8E51024F9F9E6F70809E6F7A81008F9
:10383900E5102435F9741326F7E4083609F7080961
:10384900E6F7A81008E510241EF9740F26F7E40816
:103859003609F70809E6F7E5102415F8E5102422DA
:10386900F9741826F7E4083609F70809E6F7E510A8
:103879002415F8E5102425F9741D26F7E4083609FE
:10388900F70809E6F7A81008E5102428F97417269F
:10389900F7E4083609F70809E6F7E5102415F8E50D
:1038A90010242BF9742026F7E4083609F70809E6ED
:1038B900F7E51024F9F8E608467003023D8FE51094
:1038C900241BF886820886830886F0126242FBA3CD
:1038D900126242FCA3126242FDA3126242FEEB7025
:1038E90004EC30E003023BE5A81008E5102432F9A6
:1038F900740326F7E4083609F70809E6F7E5102402
:1039090032F886820886830886F0126242FA1AE53E
:10391900102432F886820886830886F0EA125EA4AB
:103929006038E5102428F886820886830886F01214
:103939006242FAA3126242FBA3126242FCA3126220
:1039490042FDE5102404F874012AF6E43B08F6E484
:103959003C08F6E43D08F6023A94EB4C4D4EB401AE
:1039690000E433FD6022E510241EF8868208868370
:103979000886F0126242FDA3126242FEA31262425D
:10398900FFA3126242FA8030E5102435F8868208D6
:1039990086830886F0126242FAA3126242FBA312DE
:1039A9006242FCA3126242FD8A828B838CF0121858
:1039B90063AD82AE83AFF0FAE510240EF8A60508D0
:1039C900A60608A60708A602E510240EF8C3E69481
:1039D9000208E6940008E6940008E6940050030201
:1039E9003D94E5102422F886820886830886F01221
:1039F9006242FEA3126242FFA3126242FAA312625A
:103A090042FBE510240EF8C3E69E08E69F08E69AF5
:103A190008E69B4003023D94E5102435F8868208A8
:103A290086830886F0E510240EF9E7125EA4A3093F
:103A3900E7125EA4A309E7125EA4A309E7125EA434
:103A4900E510240EF886820886830886F008E612B7
:103A59001B9FAA82AB83ACF0FDE5102404F8A602F3
:103A690008A60308A60408A605E5102425F88682F9
:103A79000886830886F0126242FAE5102432F88635
:103A8900820886830886F0EA125EA4E5102428F8E5
:103A990086820886830886F0E5102404F9E7125E19
:103AA900A4A309E7125EA4A309E7125EA4A309E788
:103AB900125EA4E51024F904F8E6C313FE7F004F53
:103AC9007003023BE5E5102432F8868208868308F4
:103AD90086F0126242FC7D00C3EC9EED9F5015E515
:103AE900102432F886820886830886F0126242FC26
:103AF9008C067F008E04C004C006C007C004E51010
:103B09002404F8E6C0E008E6C0E008E6C0E008E6FC
:103B1900C0E0E5102412F8E6C0E008E6C0E008E6D7
:103B2900C0E0758200120D3EAD82E58124F8F58171
:103B3900D007D006D004BD00028003023D94E510F1
:103B49002432F886820886830886F0126242FDECE8
:103B590014D39DF4FDE5102432F886820886830883
:103B690086F0ED125EA4E5102428F8868208868383
:103B79000886F0E510242EF9126242F7A312624278
:103B890009F7A312624209F7A312624209F7EE2468
:103B9900FFFAEF34FFFBE4FCFDE510242EF8EA26DA
:103BA900FAEB0836FBEC0836FCED0836FDE5102487
:103BB90028F886820886830886F0EA125EA4A3EBB9
:103BC900125EA4A3EC125EA4A3ED125EA4E5102478
:103BD9000CF8EE2E08F6187600023CC6E5102428EB
:103BE900F886820886830886F0126242FCA3126274
:103BF90042FDA3126242FEA3126242FF8C828D83B0
:103C09008EF0121779E5827003023D94E510241BAA
:103C1900F886820886830886F0126242FCA3126243
:103C290042FDA3126242FEA3126242FF530501E460
:103C3900FEFFE510240CF8E4C39CF674029D08F617
:103C4900E510240CF8E51024F9F9C3E79609E7080B
:103C5900965010E51024F9F8E510240CF9E6F70858
:103C690009E6F7E510241BF886820886830886F0A2
:103C7900126242FCA3126242FDA3126242FEA31227
:103C89006242FF530501E510242BF8EC26FCED08F0
:103C990036FD088606E510240CF8E6C0E008E6C003
:103CA900E0C004C005C006E5102412F88682088623
:103CB900830886F012617CE58124FBF581E51024F7
:103CC90012F8E510240CF9E726F609E70836F6E5B7
:103CD90010241BF886820886830886F0E510242EB6
:103CE900F9126242F7A312624209F7A3126242096A
:103CF900F7A312624209F7E510240CF88602088638
:103D090003E4FCFDE510242EF8EA26FAEB0836FB5D
:103D1900EC0836FCED0836FDE510241BF886820810
:103D290086830886F0EA125EA4A3EB125EA4A3ECD4
:103D3900125EA4A3ED125EA4E5102418F886820889
:103D490086830886F0126242FAA3126242FBE510EA
:103D5900240CF8E62AFA08E63BFBE5102418F88655
:103D6900820886830886F0EA125EA4A3EB125EA499
:103D7900E51024F9F8E510240CF9E6C397F608E6EE
:103D89000997F60238BA7582008028E5102438F8B8
:103D990086820886830886F0126242FA430280E529
:103DA900102438F886820886830886F0EA125EA411
:103DB900758208851081D01022C010858110C082BB
:103DC900C083C0F0E581243AF581E51024FBF8862B
:103DD90005088606088607E5102412F8A60508A630
:103DE9000608A607A81008740426FDE40836FE088C
:103DF90086078D828E838FF0126242FDA312624282
:103E0900FEA3126242FFE5102415F8A60508A606CE
:103E190008A607E51024F6F8E5102418F9E6F708CE
:103E290009E6F70809E6F7E5102418F886820886F6
:103E3900830886F0E4125EA4A3E4125EA4A8100825
:103E490086820886830886F0126242FAA3126242C9
:103E5900FBC002C003E5102415F886820886830892
:103E690086F01232FDAA8215811581BA00028005F9
:103E79008A820244F6A81008E5102438F97402264B
:103E8900F7E4083609F70809E6F7E5102438F88653
:103E9900820886830886F0126242FA30E706758244
:103EA900080244F6EA20E0067582060244F6A810E4
:103EB90008740B26FAE40836FB0886048A828B8389
:103EC9008CF0E510241EF8126242F6A31262420831
:103ED900F6A312624208F6A312624208F6A8100875
:103EE900E510241BF9740726F7E4083609F70809D1
:103EF900E6F7E510241BF886820886830886F01207
:103F09006242FEA3126242FFA3126242FAA3126244
:103F190042FBE510241EF8E6C39EFE08E69FFF0853
:103F2900E69AFA08E69BFBE5102408F8A60608A617
:103F39000708A60208A603E51024F9F886020886F0
:103F490003E4FCFDE5102408F8C3E69A08E69B089B
:103F5900E69C08E69D5010E5102408F8E51024F9C0
:103F6900F9E6F70809E6F7A81008E5102435F97409
:103F79001326F7E4083609F70809E6F7A81008E553
:103F890010241EF9740F26F7E4083609F70809E624
:103F9900F7E5102415F8E5102422F9741826F7E43A
:103FA900083609F70809E6F7E5102415F8E510249D
:103FB90025F9741D26F7E4083609F70809E6F7A874
:103FC9001008E5102428F9741726F7E4083609F7CC
:103FD9000809E6F7E5102415F8E510242BF97420F3
:103FE90026F7E4083609F70809E6F7E51024F9F891
:103FF900E6084670030244C9E510241BF8868208C6
:1040090086830886F0126242FBA3126242FCA31265
:104019006242FDA3126242FEEB7004EC30E003023F
:10402900431FA81008E5102432F9740326F7E408A1
:104039003609F70809E6F7E5102432F8868208867A
:10404900830886F0126242FA1AE5102432F8868251
:104059000886830886F0EA125EA46038E5102428F1
:10406900F886820886830886F0126242FAA31262F1
:1040790042FBA3126242FCA3126242FDE510240432
:10408900F874012AF6E43B08F6E43C08F6E43D0836
:10409900F60241CEEB4C4D4EB40100E433FD6022F3
:1040A900E510241EF886820886830886F01262428B
:1040B900FDA3126242FEA3126242FFA3126242FAF8
:1040C9008030E5102435F886820886830886F01248
:1040D9006242FAA3126242FBA3126242FCA3126279
:1040E90042FD8A828B838CF0121863AD82AE83AF56
:1040F900F0FAE510240EF8A60508A60608A6070892
:10410900A602E510240EF8C3E6940208E694000816
:10411900E6940008E6940050030244CEE5102422F8
:10412900F886820886830886F0126242FEA312622C
:1041390042FFA3126242FAA3126242FBE510240E67
:10414900F8C3E69E08E69F08E69A08E69B40030244
:1041590044CEE5102435F886820886830886F0E582
:1041690010240EF9E7125EA4A309E7125EA4A309BD
:10417900E7125EA4A309E7125EA4E510240EF886EF
:10418900820886830886F008E6121B9FAA82AB8301
:10419900ACF0FDE5102404F8A60208A60308A6045D
:1041A90008A605E5102425F886820886830886F086
:1041B900126242FAE5102432F8868208868308865C
:1041C900F0EA125EA4E5102428F88682088683089E
:1041D90086F0E5102404F9E7125EA4A309E7125E4C
:1041E900A4A309E7125EA4A309E7125EA4E51024BB
:1041F900F904F8E6C313FE7F004F700302431FE57D
:10420900102432F886820886830886F0126242FCFE
:104219007D00C3EC9EED9F5015E5102432F886828F
:104229000886830886F0126242FC8C067F008E04A1
:10423900C004C006C007C004E5102404F8E6C0E0C5
:1042490008E6C0E008E6C0E008E6C0E0E510241290
:10425900F8E6C0E008E6C0E008E6C0E075820012B2
:104269000DA4AD82E58124F8F581D007D006D004EC
:10427900BD000280030244CEE5102432F88682088C
:1042890086830886F0126242FDEC14D39DF4FDE5A5
:10429900102432F886820886830886F0ED125EA41F
:1042A900E5102428F886820886830886F0E510241C
:1042B9002EF9126242F7A312624209F7A31262426F
:1042C90009F7A312624209F7EE24FFFAEF34FFFB64
:1042D900E4FCFDE510242EF8EA26FAEB0836FBEC9F
:1042E9000836FCED0836FDE5102428F88682088694
:1042F900830886F0EA125EA4A3EB125EA4A3EC1273
:104309005EA4A3ED125EA4E510240CF8EE2E08F6C7
:10431900187600024400E5102428F886820886836E
:104329000886F0126242FCA3126242FDA3126242A5
:10433900FEA3126242FF8C828D838EF0121779E5FB
:104349008270030244CEE510241BF8868208868316
:104359000886F0126242FCA3126242FDA312624275
:10436900FEA3126242FF530501E4FEFFE510240C8F
:10437900F8E4C39CF674029D08F6E510240CF8E5F0
:104389001024F9F9C3E79609E708965010E51024B7
:10439900F9F8E510240CF9E6F70809E6F7E5102421
:1043A9001BF886820886830886F0126242FCA312F3
:1043B9006242FDA3126242FEA3126242FF5305014B
:1043C900E510242BF8EC26FCED0836FD088606E5F9
:1043D90010240CF8E6C0E008E6C0E0C004C005C03F
:1043E90006E5102412F886820886830886F0126191
:1043F9007CE58124FBF581E5102412F8E510240CF5
:10440900F9E726F609E70836F6E510241BF886824F
:104419000886830886F0E510242EF9126242F7A374
:1044290012624209F7A312624209F7A31262420912
:10443900F7E510240CF88602088603E4FCFDE51074
:10444900242EF8EA26FAEB0836FBEC0836FCED08D0
:1044590036FDE510241BF886820886830886F0EA73
:10446900125EA4A3EB125EA4A3EC125EA4A3ED1248
:104479005EA4E5102418F886820886830886F0125F
:104489006242FAA3126242FBE510240CF8E62AFA0A
:1044990008E63BFBE5102418F8868208868308861F
:1044A900F0EA125EA4A3EB125EA4E51024F9F8E584
:1044B90010240CF9E6C397F608E60997F6023FF4CB
:1044C9007582008028E5102438F8868208868308DA
:1044D90086F0126242FA430280E5102438F8868297
:1044E9000886830886F0EA125EA475820885108121
:1044F900D01022C010858110C082C083C0F0E58130
:10450900243AF581E51024FBF88605088606088615
:1045190007E5102412F8A60508A60608A607A8109C
:1045290008740426FDE40836FE0886078D828E830A
:104539008FF0126242FDA3126242FEA3126242FF91
:10454900E5102415F8A60508A60608A607E510240F
:10455900F6F8E5102418F9E6F70809E6F70809E678
:10456900F7E5102418F886820886830886F0E41295
:104579005EA4A3E4125EA4A81008868208868308B4
:1045890086F0126242FAA3126242FBC002C003E53E
:10459900102415F886820886830886F01232FDAA4F
:1045A9008215811581BA000280058A82024C30A8E1
:1045B9001008E5102438F9740226F7E4083609F7DB
:1045C9000809E6F7E5102438F88682088683088604
:1045D900F0126242FA30E706758208024C30EA208E
:1045E900E006758206024C30A81008740B26FAE41E
:1045F9000836FB0886048A828B838CF0E510241E1A
:10460900F8126242F6A312624208F6A31262420845
:10461900F6A312624208F6A81008E510241BF974E3
:104629000726F7E4083609F70809E6F7E510241B19
:10463900F886820886830886F0126242FEA3126217
:1046490042FFA3126242FAA3126242FBE510241E42
:10465900F8E6C39EFE08E69FFF08E69AFA08E69B7D
:10466900FBE5102408F8A60608A60708A60208A66E
:1046790003E51024F9F88602088603E4FCFDE51039
:104689002408F8C3E69A08E69B08E69C08E69D50CC
:1046990010E5102408F8E51024F9F9E6F70809E609
:1046A900F7A81008E5102435F9741326F7E408363D
:1046B90009F70809E6F7A81008E510241EF9740F90
:1046C90026F7E4083609F70809E6F7E5102415F88E
:1046D900E5102422F9741826F7E4083609F70809C1
:1046E900E6F7E5102415F8E5102425F9741D26F7D9
:1046F900E4083609F70809E6F7A81008E5102428A0
:10470900F9741726F7E4083609F70809E6F7E510FA
:104719002415F8E510242BF9742026F7E408360946
:10472900F70809E6F7E51024F9F8E60846700302E8
:104739004C03E510241BF886820886830886F0124C
:104749006242FBA3126242FCA3126242FDA31262FF
:1047590042FEEB7004EC30E003024A59A81008E568
:10476900102432F9740326F7E4083609F70809E634
:10477900F7E5102432F886820886830886F01262EB
:1047890042FA1AE5102432F886820886830886F0F0
:10479900EA125EA46038E5102428F8868208868328
:1047A9000886F0126242FAA3126242FBA312624225
:1047B900FCA3126242FDE5102404F874012AF6E410
:1047C9003B08F6E43C08F6E43D08F6024908EB4CE0
:1047D9004D4EB40100E433FD6022E510241EF88635
:1047E900820886830886F0126242FDA3126242FEA5
:1047F900A3126242FFA3126242FA8030E510243507
:10480900F886820886830886F0126242FAA3126249
:1048190042FBA3126242FCA3126242FD8A828B838D
:104829008CF0121863AD82AE83AFF0FAE510240E56
:10483900F8A60508A60608A60708A602E510240E8C
:10484900F8C3E6940208E6940008E6940008E694A2
:10485900005003024C08E5102422F886820886835A
:104869000886F0126242FEA3126242FFA31262425C
:10487900FAA3126242FBE510240EF8C3E69E08E68D
:104889009F08E69A08E69B4003024C08E510243588
:10489900F886820886830886F0E510240EF9E71267
:1048A9005EA4A309E7125EA4A309E7125EA4A30903
:1048B900E7125EA4E510240EF8868208868308862E
:1048C900F008E6121B9FAA82AB83ACF0FDE5102429
:1048D90004F8A60208A60308A60408A605E51024FC
:1048E90025F886820886830886F0126242FAE51066
:1048F9002432F886820886830886F0EA125EA4E5E7
:10490900102428F886820886830886F0E510240496
:10491900F9E7125EA4A309E7125EA4A309E7125EF0
:10492900A4A309E7125EA4E51024F904F8E6C31369
:10493900FE7F004F7003024A59E5102432F886823F
:104949000886830886F0126242FC7D00C3EC9EED66
:104959009F5015E5102432F886820886830886F070
:10496900126242FC8C067F008E04C004C006C00798
:10497900C004E5102404F8E6C0E008E6C0E008E653
:10498900C0E008E6C0E0E5102412F8E6C0E008E659
:10499900C0E008E6C0E0758200120E13AD82E58121
:1049A90024F8F581D007D006D004BD0002800302A7
:1049B9004C08E5102432F886820886830886F012AE
:1049C9006242FDEC14D39DF4FDE5102432F8868291
:1049D9000886830886F0ED125EA4E5102428F8867F
:1049E900820886830886F0E510242EF9126242F7C0
:1049F900A312624209F7A312624209F7A3126242A3
:104A090009F7EE24FFFAEF34FFFBE4FCFDE510247F
:104A19002EF8EA26FAEB0836FBEC0836FCED0836E8
:104A2900FDE5102428F886820886830886F0EA12B4
:104A39005EA4A3EB125EA4A3EC125EA4A3ED125E26
:104A4900A4E510240CF8EE2E08F6187600024B3A6D
:104A5900E5102428F886820886830886F0126242C7
:104A6900FCA3126242FDA3126242FEA3126242FF3C
:104A79008C828D838EF0121779E5827003024C08BF
:104A8900E510241BF886820886830886F0126242A4
:104A9900FCA3126242FDA3126242FEA3126242FF0C
:104AA900530501E4FEFFE510240CF8E4C39CF674F9
:104AB900029D08F6E510240CF8E51024F9F9C3E77E
